:020000020000FC
:0200000028C016
:0200480045C0B1
:02004C001FC0D3
:100050005FC0F8940FEF0DBF04E00EBF07E60093FA
:10006000C40008ED0093C10006E00093C200002721
:1000700000930B0100930C0110E021E010930B01A1
:1000800020930C012227789400C0FFCF0F930FB765
:100090000F931F93EF93FF93E0910B01F0910C01ED
:1000A0000191003069F00093C600E0930B01F093DA
:1000B0000C01FF91EF911F910F910FBF0F911895B8
:1000C00008ED0093C10010E021E010930B01209394
:1000D0000C01EFCF0F930FB70F931F93EF93FF9385
:1000E000E0910B01F0910C010091C600003031F05D
:1000F0000193E0930B01F0930C01DBCF08EF009329
:10010000C10010E021E010930B0120930C01D1CF2E
:02011000189540
:00000001FF
