:020000020000FC
:0200000028C016
:0200480077C07F
:02004C004FC0A3
:1000500099C0F8940FEF0DBF04E00EBF07E60093C0
:10006000C40008ED0093C10006E00093C200002721
:1000700000930601009307010093180100931D01EE
:1000800010E021E0109304012093050122277894C9
:1000900000C0009118010130E1F7E0E0F1E051917A
:1000A0006191719180810027009318016235B1F44C
:1000B000E9E1F1E051937193A8E0B1E07053A70F2B
:1000C0008C91819300270083E9E1F1E0E093060140
:1000D000F093070108EF0093C100DBCF6735C9F645
:1000E000E8E0F1E07053E70F8083D3CF0F930FB7B1
:1000F0000F931F93EF93FF93E0910601F091070197
:1001000010911D01139510931D0101910093C600DC
:10011000E0930601F0930701133039F0FF91EF915E
:100120001F910F910FBF0F91189508ED0093C1001B
:10013000112710931D01F2CF0F930FB70F931F9349
:10014000EF93FF9310911D01139510931D01E09102
:100150000401F09105010091C6000193E0930401B0
:10016000F0930501143009F0D9CF10E021E010938D
:10017000040120930501112710931D0101E0009354
:060180001801CCCF189518
:00000001FF
