S011000044696769745465726D2E737265638A
S11300000C9434000C9449000C9449000C9449005D
S11300100C9449000C9449000C9449000C94490038
S11300200C9449000C9449000C9449000C94490028
S11300300C9449000C9449000C9449000C94490018
S11300400C9449000C9449000C9449000C94490008
S11300500C9449000C9449000C9449000C944900F8
S11300600C9449000C94490011241FBECFEFD4E036
S1130070DEBFCDBF11E0A0E0B1E0ECECF3E002C0E4
S113008005900D92A630B107D9F70E947A010C941D
S1130090E4010C9400001092B90088E48093B80045
S11300A084E08093BC00089594EA9093BC009091FE
S11300B0BC009923E4F79091B900987F9830C1F47B
S11300C08093BB0094E89093BC009091BC0099236A
S11300D0E4F79091B900987F282F217080FD02C029
S11300E0983141F4222341F0903441F480E00895A2
S11300F081E0089582E0089580E0089582E0089503
S11301008093BB0084E88093BC008091BC0088236A
S1130110E4F78091B900887F883211F081E0089576
S113012080E00895FC0184E88093BC009091BC00B9
S11301309923E4F78091BB0080838091B900887F84
S1130140883511F081E0089580E0089584E9809372
S1130150BC0085E38A95F1F7000008959BB19F7078
S1130160282F207F922B9BB99BB19E7F9BB99BB17B
S113017092609BB900009BB19D7F9BB932E43A9594
S1130180F1F700C02BB130E1839FC0011124922FFD
S11301909F70892B8BB98BB182608BB900008BB1B6
S11301A08D7F8BB983EF91E00197F1F700C00000D8
S11301B008959BB19F70282F207F922B9BB99BB1F0
S11301C091609BB99BB192609BB900009BB19D7FEC
S11301D09BB932E43A95F1F700C02BB130E1839F2B
S11301E0C0011124922F9F70892B8BB98BB182602F
S11301F08BB900008BB18D7F8BB983EF91E00197B0
S1130200F1F700C0000008958FEF8AB987E893E101
S11302100197F1F700C0000082E00E94AE0088E27E
S11302200E94AE008CE00E94AE0086E00E94AE0008
S113023081E00E94AE0083EF91E00197F1F700C0E6
S1130240000008950F931F93CF93DF938C01C0E0B8
S1130250D0E003C00E94D9002196F801EC0FFD1FE5
S113026080818111F7CFDF91CF911F910F91089574
S113027081E00E94AE0083EF91E00197F1F700C0A6
S1130280000080E80E94AE00089580E90E945400B6
S113029081110EC08EEE0E9480000E94A6002FEFF6
S11302A083EC99E0215080409040E1F700C00000C9
S11302B00895CF93DF931F92CDB7DEB780E90E94F4
S11302C05400811110C08AEA0E94800081E90E94D2
S11302D0540081110AC0CE0101960E9492000E942E
S11302E0A600898103C080E001C080E00F90DF9107
S11302F0CF910895CF93DF93CDB7DEB760970FB654
S1130300F894DEBF0FBECDBF0E9404010E944B00D3
S11303108FEF88B90E9445010E9459014AE0BE014D
S11303206F5F7F4F082E000C990B0E94AF0180E095
S113033091E00E942201CE0101960E94220183E0F5
S113034091E00E9422012FEF83ED90E32150804041
S11303509040E1F700C000000E943801DBCFBB27CA
S11303604A3031F4992322F4BDE2909581959F4F50
S11303700C94BB01BB27FB015527AA27880F991FA3
S1130380AA1FA41710F0A41B83955051B9F7A05DC0
S1130390AA3308F0A95DA193009779F7B111B1933D
S11303A01192CB010C94D401DC01FC01672F7191F3
S11303B07723E1F7329704C07C916D937083629147
S10F03C0AE17BF07C8F30895F894FFCFF0
S10903CC543A00B04300A6
S9030000FC
